{
  "_format": "hh-sol-artifact-1",
  "contractName": "Defender",
  "sourceName": "contracts/Defender.sol",
  "abi": [
    {
      "inputs": [],
      "stateMutability": "nonpayable",
      "type": "constructor"
    },
    {
      "anonymous": false,
      "inputs": [
        {
          "indexed": true,
          "internalType": "address",
          "name": "account",
          "type": "address"
        },
        {
          "indexed": true,
          "internalType": "address",
          "name": "operator",
          "type": "address"
        },
        {
          "indexed": false,
          "internalType": "bool",
          "name": "approved",
          "type": "bool"
        }
      ],
      "name": "ApprovalForAll",
      "type": "event"
    },
    {
      "anonymous": false,
      "inputs": [
        {
          "indexed": false,
          "internalType": "string",
          "name": "func",
          "type": "string"
        },
        {
          "indexed": false,
          "internalType": "address",
          "name": "sender",
          "type": "address"
        },
        {
          "indexed": false,
          "internalType": "uint256",
          "name": "value",
          "type": "uint256"
        },
        {
          "indexed": false,
          "internalType": "bytes",
          "name": "data",
          "type": "bytes"
        }
      ],
      "name": "Log",
      "type": "event"
    },
    {
      "anonymous": false,
      "inputs": [
        {
          "indexed": true,
          "internalType": "address",
          "name": "previousOwner",
          "type": "address"
        },
        {
          "indexed": true,
          "internalType": "address",
          "name": "newOwner",
          "type": "address"
        }
      ],
      "name": "OwnershipTransferred",
      "type": "event"
    },
    {
      "anonymous": false,
      "inputs": [
        {
          "indexed": false,
          "internalType": "address",
          "name": "account",
          "type": "address"
        }
      ],
      "name": "Paused",
      "type": "event"
    },
    {
      "anonymous": false,
      "inputs": [
        {
          "indexed": true,
          "internalType": "address",
          "name": "operator",
          "type": "address"
        },
        {
          "indexed": true,
          "internalType": "address",
          "name": "from",
          "type": "address"
        },
        {
          "indexed": true,
          "internalType": "address",
          "name": "to",
          "type": "address"
        },
        {
          "indexed": false,
          "internalType": "uint256[]",
          "name": "ids",
          "type": "uint256[]"
        },
        {
          "indexed": false,
          "internalType": "uint256[]",
          "name": "values",
          "type": "uint256[]"
        }
      ],
      "name": "TransferBatch",
      "type": "event"
    },
    {
      "anonymous": false,
      "inputs": [
        {
          "indexed": true,
          "internalType": "address",
          "name": "operator",
          "type": "address"
        },
        {
          "indexed": true,
          "internalType": "address",
          "name": "from",
          "type": "address"
        },
        {
          "indexed": true,
          "internalType": "address",
          "name": "to",
          "type": "address"
        },
        {
          "indexed": false,
          "internalType": "uint256",
          "name": "id",
          "type": "uint256"
        },
        {
          "indexed": false,
          "internalType": "uint256",
          "name": "value",
          "type": "uint256"
        }
      ],
      "name": "TransferSingle",
      "type": "event"
    },
    {
      "anonymous": false,
      "inputs": [
        {
          "indexed": false,
          "internalType": "string",
          "name": "value",
          "type": "string"
        },
        {
          "indexed": true,
          "internalType": "uint256",
          "name": "id",
          "type": "uint256"
        }
      ],
      "name": "URI",
      "type": "event"
    },
    {
      "anonymous": false,
      "inputs": [
        {
          "indexed": false,
          "internalType": "address",
          "name": "account",
          "type": "address"
        }
      ],
      "name": "Unpaused",
      "type": "event"
    },
    {
      "stateMutability": "payable",
      "type": "fallback"
    },
    {
      "inputs": [
        {
          "internalType": "address",
          "name": "account",
          "type": "address"
        },
        {
          "internalType": "uint256",
          "name": "id",
          "type": "uint256"
        }
      ],
      "name": "balanceOf",
      "outputs": [
        {
          "internalType": "uint256",
          "name": "",
          "type": "uint256"
        }
      ],
      "stateMutability": "view",
      "type": "function"
    },
    {
      "inputs": [
        {
          "internalType": "address[]",
          "name": "accounts",
          "type": "address[]"
        },
        {
          "internalType": "uint256[]",
          "name": "ids",
          "type": "uint256[]"
        }
      ],
      "name": "balanceOfBatch",
      "outputs": [
        {
          "internalType": "uint256[]",
          "name": "",
          "type": "uint256[]"
        }
      ],
      "stateMutability": "view",
      "type": "function"
    },
    {
      "inputs": [
        {
          "internalType": "address",
          "name": "account",
          "type": "address"
        },
        {
          "internalType": "uint256",
          "name": "id",
          "type": "uint256"
        },
        {
          "internalType": "uint256",
          "name": "value",
          "type": "uint256"
        }
      ],
      "name": "burn",
      "outputs": [],
      "stateMutability": "nonpayable",
      "type": "function"
    },
    {
      "inputs": [
        {
          "internalType": "address",
          "name": "account",
          "type": "address"
        },
        {
          "internalType": "uint256[]",
          "name": "ids",
          "type": "uint256[]"
        },
        {
          "internalType": "uint256[]",
          "name": "values",
          "type": "uint256[]"
        }
      ],
      "name": "burnBatch",
      "outputs": [],
      "stateMutability": "nonpayable",
      "type": "function"
    },
    {
      "inputs": [
        {
          "internalType": "uint256",
          "name": "id",
          "type": "uint256"
        }
      ],
      "name": "exists",
      "outputs": [
        {
          "internalType": "bool",
          "name": "",
          "type": "bool"
        }
      ],
      "stateMutability": "view",
      "type": "function"
    },
    {
      "inputs": [],
      "name": "getBalance",
      "outputs": [
        {
          "internalType": "uint256",
          "name": "",
          "type": "uint256"
        }
      ],
      "stateMutability": "view",
      "type": "function"
    },
    {
      "inputs": [
        {
          "internalType": "address",
          "name": "account",
          "type": "address"
        },
        {
          "internalType": "address",
          "name": "operator",
          "type": "address"
        }
      ],
      "name": "isApprovedForAll",
      "outputs": [
        {
          "internalType": "bool",
          "name": "",
          "type": "bool"
        }
      ],
      "stateMutability": "view",
      "type": "function"
    },
    {
      "inputs": [],
      "name": "maxSupply",
      "outputs": [
        {
          "internalType": "uint256",
          "name": "",
          "type": "uint256"
        }
      ],
      "stateMutability": "view",
      "type": "function"
    },
    {
      "inputs": [
        {
          "internalType": "uint256",
          "name": "amount",
          "type": "uint256"
        }
      ],
      "name": "mint",
      "outputs": [],
      "stateMutability": "nonpayable",
      "type": "function"
    },
    {
      "inputs": [
        {
          "internalType": "address",
          "name": "to",
          "type": "address"
        },
        {
          "internalType": "uint256[]",
          "name": "ids",
          "type": "uint256[]"
        },
        {
          "internalType": "uint256[]",
          "name": "amounts",
          "type": "uint256[]"
        },
        {
          "internalType": "bytes",
          "name": "data",
          "type": "bytes"
        }
      ],
      "name": "mintBatch",
      "outputs": [],
      "stateMutability": "nonpayable",
      "type": "function"
    },
    {
      "inputs": [],
      "name": "owner",
      "outputs": [
        {
          "internalType": "address",
          "name": "",
          "type": "address"
        }
      ],
      "stateMutability": "view",
      "type": "function"
    },
    {
      "inputs": [],
      "name": "pause",
      "outputs": [],
      "stateMutability": "nonpayable",
      "type": "function"
    },
    {
      "inputs": [],
      "name": "paused",
      "outputs": [
        {
          "internalType": "bool",
          "name": "",
          "type": "bool"
        }
      ],
      "stateMutability": "view",
      "type": "function"
    },
    {
      "inputs": [],
      "name": "renounceOwnership",
      "outputs": [],
      "stateMutability": "nonpayable",
      "type": "function"
    },
    {
      "inputs": [
        {
          "internalType": "address",
          "name": "from",
          "type": "address"
        },
        {
          "internalType": "address",
          "name": "to",
          "type": "address"
        },
        {
          "internalType": "uint256[]",
          "name": "ids",
          "type": "uint256[]"
        },
        {
          "internalType": "uint256[]",
          "name": "amounts",
          "type": "uint256[]"
        },
        {
          "internalType": "bytes",
          "name": "data",
          "type": "bytes"
        }
      ],
      "name": "safeBatchTransferFrom",
      "outputs": [],
      "stateMutability": "nonpayable",
      "type": "function"
    },
    {
      "inputs": [
        {
          "internalType": "address",
          "name": "from",
          "type": "address"
        },
        {
          "internalType": "address",
          "name": "to",
          "type": "address"
        },
        {
          "internalType": "uint256",
          "name": "id",
          "type": "uint256"
        },
        {
          "internalType": "uint256",
          "name": "amount",
          "type": "uint256"
        },
        {
          "internalType": "bytes",
          "name": "data",
          "type": "bytes"
        }
      ],
      "name": "safeTransferFrom",
      "outputs": [],
      "stateMutability": "nonpayable",
      "type": "function"
    },
    {
      "inputs": [
        {
          "internalType": "address",
          "name": "operator",
          "type": "address"
        },
        {
          "internalType": "bool",
          "name": "approved",
          "type": "bool"
        }
      ],
      "name": "setApprovalForAll",
      "outputs": [],
      "stateMutability": "nonpayable",
      "type": "function"
    },
    {
      "inputs": [
        {
          "internalType": "string",
          "name": "newuri",
          "type": "string"
        }
      ],
      "name": "setURI",
      "outputs": [],
      "stateMutability": "nonpayable",
      "type": "function"
    },
    {
      "inputs": [
        {
          "internalType": "bytes4",
          "name": "interfaceId",
          "type": "bytes4"
        }
      ],
      "name": "supportsInterface",
      "outputs": [
        {
          "internalType": "bool",
          "name": "",
          "type": "bool"
        }
      ],
      "stateMutability": "view",
      "type": "function"
    },
    {
      "inputs": [
        {
          "internalType": "uint256",
          "name": "id",
          "type": "uint256"
        }
      ],
      "name": "totalSupply",
      "outputs": [
        {
          "internalType": "uint256",
          "name": "",
          "type": "uint256"
        }
      ],
      "stateMutability": "view",
      "type": "function"
    },
    {
      "inputs": [
        {
          "internalType": "address payable",
          "name": "_to",
          "type": "address"
        },
        {
          "internalType": "uint256",
          "name": "_amount",
          "type": "uint256"
        }
      ],
      "name": "transfer",
      "outputs": [],
      "stateMutability": "nonpayable",
      "type": "function"
    },
    {
      "inputs": [
        {
          "internalType": "address",
          "name": "newOwner",
          "type": "address"
        }
      ],
      "name": "transferOwnership",
      "outputs": [],
      "stateMutability": "nonpayable",
      "type": "function"
    },
    {
      "inputs": [],
      "name": "unpause",
      "outputs": [],
      "stateMutability": "nonpayable",
      "type": "function"
    },
    {
      "inputs": [
        {
          "internalType": "uint256",
          "name": "",
          "type": "uint256"
        }
      ],
      "name": "uri",
      "outputs": [
        {
          "internalType": "string",
          "name": "",
          "type": "string"
        }
      ],
      "stateMutability": "view",
      "type": "function"
    },
    {
      "stateMutability": "payable",
      "type": "receive"
    }
  ],
  "bytecode": "0x608060405260de6006553480156200001657600080fd5b50604051806080016040528060438152602001620049ea6043913962000042816200008c60201b60201c565b506200006362000057620000a860201b60201c565b620000b060201b60201c565b6000600360146101000a81548160ff02191690831515021790555060016005819055506200028b565b8060029080519060200190620000a492919062000176565b5050565b600033905090565b6000600360009054906101000a900473ffffffffffffffffffffffffffffffffffffffff16905081600360006101000a81548173ffffffffffffffffffffffffffffffffffffffff021916908373ffffffffffffffffffffffffffffffffffffffff1602179055508173ffffffffffffffffffffffffffffffffffffffff168173ffffffffffffffffffffffffffffffffffffffff167f8be0079c531659141344cd1fd0a4f28419497f9722a3daafe3b4186f6b6457e060405160405180910390a35050565b828054620001849062000255565b90600052602060002090601f016020900481019282620001a85760008555620001f4565b82601f10620001c357805160ff1916838001178555620001f4565b82800160010185558215620001f4579182015b82811115620001f3578251825591602001919060010190620001d6565b5b50905062000203919062000207565b5090565b5b808211156200022257600081600090555060010162000208565b5090565b7f4e487b7100000000000000000000000000000000000000000000000000000000600052602260045260246000fd5b600060028204905060018216806200026e57607f821691505b6020821081141562000285576200028462000226565b5b50919050565b61474f806200029b6000396000f3fe60806040526004361061014e5760003560e01c8063715018a6116100b6578063bd85b0391161006f578063bd85b039146104e4578063d5abeb0114610521578063e985e9c51461054c578063f242432a14610589578063f2fde38b146105b2578063f5298aca146105db5761018e565b8063715018a6146104105780638456cb59146104275780638da5cb5b1461043e578063a0712d6814610469578063a22cb46514610492578063a9059cbb146104bb5761018e565b80632eb2c2d6116101085780632eb2c2d6146103025780633f4ba83a1461032b5780634e1273f4146103425780634f558e791461037f5780635c975abb146103bc5780636b20c454146103e75761018e565b8062fdd58e146101ce57806301ffc9a71461020b57806302fe5305146102485780630e89341c1461027157806312065fe0146102ae5780631f7fdffa146102d95761018e565b3661018e577ff7f75251dee7d7fc22deac3247729ebe7c86541f35930bf10c2a4207479a3b6c3334604051610184929190612b0e565b60405180910390a1005b7ff7f75251dee7d7fc22deac3247729ebe7c86541f35930bf10c2a4207479a3b6c33346000366040516101c49493929190612bf6565b60405180910390a1005b3480156101da57600080fd5b506101f560048036038101906101f09190612cb5565b610604565b6040516102029190612cf5565b60405180910390f35b34801561021757600080fd5b50610232600480360381019061022d9190612d68565b6106cd565b60405161023f9190612db0565b60405180910390f35b34801561025457600080fd5b5061026f600480360381019061026a9190612ef1565b6107af565b005b34801561027d57600080fd5b5061029860048036038101906102939190612f3a565b6107c3565b6040516102a59190612fde565b60405180910390f35b3480156102ba57600080fd5b506102c3610857565b6040516102d09190612cf5565b60405180910390f35b3480156102e557600080fd5b5061030060048036038101906102fb9190613169565b61085f565b005b34801561030e57600080fd5b5061032960048036038101906103249190613224565b610879565b005b34801561033757600080fd5b5061034061091a565b005b34801561034e57600080fd5b50610369600480360381019061036491906133b6565b61092c565b60405161037691906134ec565b60405180910390f35b34801561038b57600080fd5b506103a660048036038101906103a19190612f3a565b610a45565b6040516103b39190612db0565b60405180910390f35b3480156103c857600080fd5b506103d1610a59565b6040516103de9190612db0565b60405180910390f35b3480156103f357600080fd5b5061040e6004803603810190610409919061350e565b610a70565b005b34801561041c57600080fd5b50610425610b0d565b005b34801561043357600080fd5b5061043c610b21565b005b34801561044a57600080fd5b50610453610b33565b6040516104609190613599565b60405180910390f35b34801561047557600080fd5b50610490600480360381019061048b9190612f3a565b610b5d565b005b34801561049e57600080fd5b506104b960048036038101906104b491906135e0565b610bd5565b005b3480156104c757600080fd5b506104e260048036038101906104dd919061365e565b610beb565b005b3480156104f057600080fd5b5061050b60048036038101906105069190612f3a565b610cf7565b6040516105189190612cf5565b60405180910390f35b34801561052d57600080fd5b50610536610d14565b6040516105439190612cf5565b60405180910390f35b34801561055857600080fd5b50610573600480360381019061056e919061369e565b610d1a565b6040516105809190612db0565b60405180910390f35b34801561059557600080fd5b506105b060048036038101906105ab91906136de565b610dae565b005b3480156105be57600080fd5b506105d960048036038101906105d49190613775565b610e4f565b005b3480156105e757600080fd5b5061060260048036038101906105fd91906137a2565b610ed3565b005b60008073ffffffffffffffffffffffffffffffffffffffff168373ffffffffffffffffffffffffffffffffffffffff161415610675576040517f08c379a000000000000000000000000000000000000000000000000000000000815260040161066c90613867565b60405180910390fd5b60008083815260200190815260200160002060008473ffffffffffffffffffffffffffffffffffffffff1673ffffffffffffffffffffffffffffffffffffffff16815260200190815260200160002054905092915050565b60007fd9b67a26000000000000000000000000000000000000000000000000000000007bffffffffffffffffffffffffffffffffffffffffffffffffffffffff1916827bffffffffffffffffffffffffffffffffffffffffffffffffffffffff1916148061079857507f0e89341c000000000000000000000000000000000000000000000000000000007bffffffffffffffffffffffffffffffffffffffffffffffffffffffff1916827bffffffffffffffffffffffffffffffffffffffffffffffffffffffff1916145b806107a857506107a782610f70565b5b9050919050565b6107b7610fda565b6107c081611058565b50565b6060600280546107d2906138b6565b80601f01602080910402602001604051908101604052809291908181526020018280546107fe906138b6565b801561084b5780601f106108205761010080835404028352916020019161084b565b820191906000526020600020905b81548152906001019060200180831161082e57829003601f168201915b50505050509050919050565b600047905090565b610867610fda565b61087384848484611072565b50505050565b61088161129f565b73ffffffffffffffffffffffffffffffffffffffff168573ffffffffffffffffffffffffffffffffffffffff1614806108c757506108c6856108c161129f565b610d1a565b5b610906576040517f08c379a00000000000000000000000000000000000000000000000000000000081526004016108fd9061395a565b60405180910390fd5b61091385858585856112a7565b5050505050565b610922610fda565b61092a6115c9565b565b60608151835114610972576040517f08c379a0000000000000000000000000000000000000000000000000000000008152600401610969906139ec565b60405180910390fd5b6000835167ffffffffffffffff81111561098f5761098e612dd5565b5b6040519080825280602002602001820160405280156109bd5781602001602082028036833780820191505090505b50905060005b8451811015610a3a57610a0a8582815181106109e2576109e1613a0c565b5b60200260200101518583815181106109fd576109fc613a0c565b5b6020026020010151610604565b828281518110610a1d57610a1c613a0c565b5b60200260200101818152505080610a3390613a6a565b90506109c3565b508091505092915050565b600080610a5183610cf7565b119050919050565b6000600360149054906101000a900460ff16905090565b610a7861129f565b73ffffffffffffffffffffffffffffffffffffffff168373ffffffffffffffffffffffffffffffffffffffff161480610abe5750610abd83610ab861129f565b610d1a565b5b610afd576040517f08c379a0000000000000000000000000000000000000000000000000000000008152600401610af49061395a565b60405180910390fd5b610b0883838361162c565b505050565b610b15610fda565b610b1f60006118fb565b565b610b29610fda565b610b316119c1565b565b6000600360009054906101000a900473ffffffffffffffffffffffffffffffffffffffff16905090565b60065481610b6b6000610cf7565b610b759190613ab3565b1115610bb6576040517f08c379a0000000000000000000000000000000000000000000000000000000008152600401610bad90613b55565b60405180910390fd5b610bd23360008360405180602001604052806000815250611a24565b50565b610be7610be061129f565b8383611bd5565b5050565b610bf3610fda565b610bfb611d42565b47811115610c3e576040517f08c379a0000000000000000000000000000000000000000000000000000000008152600401610c3590613be7565b60405180910390fd5b60008273ffffffffffffffffffffffffffffffffffffffff1682604051610c6490613c35565b60006040518083038185875af1925050503d8060008114610ca1576040519150601f19603f3d011682016040523d82523d6000602084013e610ca6565b606091505b5050905080610cea576040517f08c379a0000000000000000000000000000000000000000000000000000000008152600401610ce190613c96565b60405180910390fd5b50610cf3611d92565b5050565b600060046000838152602001908152602001600020549050919050565b60065481565b6000600160008473ffffffffffffffffffffffffffffffffffffffff1673ffffffffffffffffffffffffffffffffffffffff16815260200190815260200160002060008373ffffffffffffffffffffffffffffffffffffffff1673ffffffffffffffffffffffffffffffffffffffff16815260200190815260200160002060009054906101000a900460ff16905092915050565b610db661129f565b73ffffffffffffffffffffffffffffffffffffffff168573ffffffffffffffffffffffffffffffffffffffff161480610dfc5750610dfb85610df661129f565b610d1a565b5b610e3b576040517f08c379a0000000000000000000000000000000000000000000000000000000008152600401610e329061395a565b60405180910390fd5b610e488585858585611d9c565b5050505050565b610e57610fda565b600073ffffffffffffffffffffffffffffffffffffffff168173ffffffffffffffffffffffffffffffffffffffff161415610ec7576040517f08c379a0000000000000000000000000000000000000000000000000000000008152600401610ebe90613d28565b60405180910390fd5b610ed0816118fb565b50565b610edb61129f565b73ffffffffffffffffffffffffffffffffffffffff168373ffffffffffffffffffffffffffffffffffffffff161480610f215750610f2083610f1b61129f565b610d1a565b5b610f60576040517f08c379a0000000000000000000000000000000000000000000000000000000008152600401610f579061395a565b60405180910390fd5b610f6b838383612038565b505050565b60007f01ffc9a7000000000000000000000000000000000000000000000000000000007bffffffffffffffffffffffffffffffffffffffffffffffffffffffff1916827bffffffffffffffffffffffffffffffffffffffffffffffffffffffff1916149050919050565b610fe261129f565b73ffffffffffffffffffffffffffffffffffffffff16611000610b33565b73ffffffffffffffffffffffffffffffffffffffff1614611056576040517f08c379a000000000000000000000000000000000000000000000000000000000815260040161104d90613d94565b60405180910390fd5b565b806002908051906020019061106e92919061297d565b5050565b600073ffffffffffffffffffffffffffffffffffffffff168473ffffffffffffffffffffffffffffffffffffffff1614156110e2576040517f08c379a00000000000000000000000000000000000000000000000000000000081526004016110d990613e26565b60405180910390fd5b8151835114611126576040517f08c379a000000000000000000000000000000000000000000000000000000000815260040161111d90613eb8565b60405180910390fd5b600061113061129f565b90506111418160008787878761227f565b60005b84518110156111fa578381815181106111605761115f613a0c565b5b602002602001015160008087848151811061117e5761117d613a0c565b5b6020026020010151815260200190815260200160002060008873ffffffffffffffffffffffffffffffffffffffff1673ffffffffffffffffffffffffffffffffffffffff16815260200190815260200160002060008282546111e09190613ab3565b9250508190555080806111f290613a6a565b915050611144565b508473ffffffffffffffffffffffffffffffffffffffff16600073ffffffffffffffffffffffffffffffffffffffff168273ffffffffffffffffffffffffffffffffffffffff167f4a39dc06d4c0dbc64b70af90fd698a233a518aa5d07e595d983b8c0526c8f7fb8787604051611272929190613ed8565b60405180910390a46112898160008787878761229d565b611298816000878787876122a5565b5050505050565b600033905090565b81518351146112eb576040517f08c379a00000000000000000000000000000000000000000000000000000000081526004016112e290613eb8565b60405180910390fd5b600073ffffffffffffffffffffffffffffffffffffffff168473ffffffffffffffffffffffffffffffffffffffff16141561135b576040517f08c379a000000000000000000000000000000000000000000000000000000000815260040161135290613f81565b60405180910390fd5b600061136561129f565b905061137581878787878761227f565b60005b845181101561152657600085828151811061139657611395613a0c565b5b6020026020010151905060008583815181106113b5576113b4613a0c565b5b60200260200101519050600080600084815260200190815260200160002060008b73ffffffffffffffffffffffffffffffffffffffff1673ffffffffffffffffffffffffffffffffffffffff16815260200190815260200160002054905081811015611456576040517f08c379a000000000000000000000000000000000000000000000000000000000815260040161144d90614013565b60405180910390fd5b81810360008085815260200190815260200160002060008c73ffffffffffffffffffffffffffffffffffffffff1673ffffffffffffffffffffffffffffffffffffffff168152602001908152602001600020819055508160008085815260200190815260200160002060008b73ffffffffffffffffffffffffffffffffffffffff1673ffffffffffffffffffffffffffffffffffffffff168152602001908152602001600020600082825461150b9190613ab3565b925050819055505050508061151f90613a6a565b9050611378565b508473ffffffffffffffffffffffffffffffffffffffff168673ffffffffffffffffffffffffffffffffffffffff168273ffffffffffffffffffffffffffffffffffffffff167f4a39dc06d4c0dbc64b70af90fd698a233a518aa5d07e595d983b8c0526c8f7fb878760405161159d929190613ed8565b60405180910390a46115b381878787878761229d565b6115c18187878787876122a5565b505050505050565b6115d161248c565b6000600360146101000a81548160ff0219169083151502179055507f5db9ee0a495bf2e6ff9c91a7834c1ba4fdd244a5e8aa4e537bd38aeae4b073aa61161561129f565b6040516116229190613599565b60405180910390a1565b600073ffffffffffffffffffffffffffffffffffffffff168373ffffffffffffffffffffffffffffffffffffffff16141561169c576040517f08c379a0000000000000000000000000000000000000000000000000000000008152600401611693906140a5565b60405180910390fd5b80518251146116e0576040517f08c379a00000000000000000000000000000000000000000000000000000000081526004016116d790613eb8565b60405180910390fd5b60006116ea61129f565b905061170a8185600086866040518060200160405280600081525061227f565b60005b835181101561185757600084828151811061172b5761172a613a0c565b5b60200260200101519050600084838151811061174a57611749613a0c565b5b60200260200101519050600080600084815260200190815260200160002060008973ffffffffffffffffffffffffffffffffffffffff1673ffffffffffffffffffffffffffffffffffffffff168152602001908152602001600020549050818110156117eb576040517f08c379a00000000000000000000000000000000000000000000000000000000081526004016117e290614137565b60405180910390fd5b81810360008085815260200190815260200160002060008a73ffffffffffffffffffffffffffffffffffffffff1673ffffffffffffffffffffffffffffffffffffffff16815260200190815260200160002081905550505050808061184f90613a6a565b91505061170d565b50600073ffffffffffffffffffffffffffffffffffffffff168473ffffffffffffffffffffffffffffffffffffffff168273ffffffffffffffffffffffffffffffffffffffff167f4a39dc06d4c0dbc64b70af90fd698a233a518aa5d07e595d983b8c0526c8f7fb86866040516118cf929190613ed8565b60405180910390a46118f58185600086866040518060200160405280600081525061229d565b50505050565b6000600360009054906101000a900473ffffffffffffffffffffffffffffffffffffffff16905081600360006101000a81548173ffffffffffffffffffffffffffffffffffffffff021916908373ffffffffffffffffffffffffffffffffffffffff1602179055508173ffffffffffffffffffffffffffffffffffffffff168173ffffffffffffffffffffffffffffffffffffffff167f8be0079c531659141344cd1fd0a4f28419497f9722a3daafe3b4186f6b6457e060405160405180910390a35050565b6119c96124d5565b6001600360146101000a81548160ff0219169083151502179055507f62e78cea01bee320cd4e420270b5ea74000d11b0c9f74754ebdbfc544b05a258611a0d61129f565b604051611a1a9190613599565b60405180910390a1565b600073ffffffffffffffffffffffffffffffffffffffff168473ffffffffffffffffffffffffffffffffffffffff161415611a94576040517f08c379a0000000000000000000000000000000000000000000000000000000008152600401611a8b90613e26565b60405180910390fd5b6000611a9e61129f565b90506000611aab8561251f565b90506000611ab88561251f565b9050611ac98360008985858961227f565b8460008088815260200190815260200160002060008973ffffffffffffffffffffffffffffffffffffffff1673ffffffffffffffffffffffffffffffffffffffff1681526020019081526020016000206000828254611b289190613ab3565b925050819055508673ffffffffffffffffffffffffffffffffffffffff16600073ffffffffffffffffffffffffffffffffffffffff168473ffffffffffffffffffffffffffffffffffffffff167fc3d58168c5ae7397731d063d5bbf3d657854427343f4c083240f7aacaa2d0f628989604051611ba6929190614157565b60405180910390a4611bbd8360008985858961229d565b611bcc83600089898989612599565b50505050505050565b8173ffffffffffffffffffffffffffffffffffffffff168373ffffffffffffffffffffffffffffffffffffffff161415611c44576040517f08c379a0000000000000000000000000000000000000000000000000000000008152600401611c3b906141f2565b60405180910390fd5b80600160008573ffffffffffffffffffffffffffffffffffffffff1673ffffffffffffffffffffffffffffffffffffffff16815260200190815260200160002060008473ffffffffffffffffffffffffffffffffffffffff1673ffffffffffffffffffffffffffffffffffffffff16815260200190815260200160002060006101000a81548160ff0219169083151502179055508173ffffffffffffffffffffffffffffffffffffffff168373ffffffffffffffffffffffffffffffffffffffff167f17307eab39ab6107e8899845ad3d59bd9653f200f220920489ca2b5937696c3183604051611d359190612db0565b60405180910390a3505050565b60026005541415611d88576040517f08c379a0000000000000000000000000000000000000000000000000000000008152600401611d7f9061425e565b60405180910390fd5b6002600581905550565b6001600581905550565b600073ffffffffffffffffffffffffffffffffffffffff168473ffffffffffffffffffffffffffffffffffffffff161415611e0c576040517f08c379a0000000000000000000000000000000000000000000000000000000008152600401611e0390613f81565b60405180910390fd5b6000611e1661129f565b90506000611e238561251f565b90506000611e308561251f565b9050611e4083898985858961227f565b600080600088815260200190815260200160002060008a73ffffffffffffffffffffffffffffffffffffffff1673ffffffffffffffffffffffffffffffffffffffff16815260200190815260200160002054905085811015611ed7576040517f08c379a0000000000000000000000000000000000000000000000000000000008152600401611ece90614013565b60405180910390fd5b85810360008089815260200190815260200160002060008b73ffffffffffffffffffffffffffffffffffffffff1673ffffffffffffffffffffffffffffffffffffffff168152602001908152602001600020819055508560008089815260200190815260200160002060008a73ffffffffffffffffffffffffffffffffffffffff1673ffffffffffffffffffffffffffffffffffffffff1681526020019081526020016000206000828254611f8c9190613ab3565b925050819055508773ffffffffffffffffffffffffffffffffffffffff168973ffffffffffffffffffffffffffffffffffffffff168573ffffffffffffffffffffffffffffffffffffffff167fc3d58168c5ae7397731d063d5bbf3d657854427343f4c083240f7aacaa2d0f628a8a604051612009929190614157565b60405180910390a461201f848a8a86868a61229d565b61202d848a8a8a8a8a612599565b505050505050505050565b600073ffffffffffffffffffffffffffffffffffffffff168373ffffffffffffffffffffffffffffffffffffffff1614156120a8576040517f08c379a000000000000000000000000000000000000000000000000000000000815260040161209f906140a5565b60405180910390fd5b60006120b261129f565b905060006120bf8461251f565b905060006120cc8461251f565b90506120ec8387600085856040518060200160405280600081525061227f565b600080600087815260200190815260200160002060008873ffffffffffffffffffffffffffffffffffffffff1673ffffffffffffffffffffffffffffffffffffffff16815260200190815260200160002054905084811015612183576040517f08c379a000000000000000000000000000000000000000000000000000000000815260040161217a90614137565b60405180910390fd5b84810360008088815260200190815260200160002060008973ffffffffffffffffffffffffffffffffffffffff1673ffffffffffffffffffffffffffffffffffffffff16815260200190815260200160002081905550600073ffffffffffffffffffffffffffffffffffffffff168773ffffffffffffffffffffffffffffffffffffffff168573ffffffffffffffffffffffffffffffffffffffff167fc3d58168c5ae7397731d063d5bbf3d657854427343f4c083240f7aacaa2d0f628989604051612250929190614157565b60405180910390a46122768488600086866040518060200160405280600081525061229d565b50505050505050565b6122876124d5565b612295868686868686612780565b505050505050565b505050505050565b6122c48473ffffffffffffffffffffffffffffffffffffffff16612952565b15612484578373ffffffffffffffffffffffffffffffffffffffff1663bc197c8187878686866040518663ffffffff1660e01b815260040161230a9594939291906142c2565b602060405180830381600087803b15801561232457600080fd5b505af192505050801561235557506040513d601f19601f82011682018060405250810190612352919061433f565b60015b6123fb57612361614379565b806308c379a014156123be575061237661439b565b8061238157506123c0565b806040517f08c379a00000000000000000000000000000000000000000000000000000000081526004016123b59190612fde565b60405180910390fd5b505b6040517f08c379a00000000000000000000000000000000000000000000000000000000081526004016123f2906144a3565b60405180910390fd5b63bc197c8160e01b7bffffffffffffffffffffffffffffffffffffffffffffffffffffffff1916817bffffffffffffffffffffffffffffffffffffffffffffffffffffffff191614612482576040517f08c379a000000000000000000000000000000000000000000000000000000000815260040161247990614535565b60405180910390fd5b505b505050505050565b612494610a59565b6124d3576040517f08c379a00000000000000000000000000000000000000000000000000000000081526004016124ca906145a1565b60405180910390fd5b565b6124dd610a59565b1561251d576040517f08c379a00000000000000000000000000000000000000000000000000000000081526004016125149061460d565b60405180910390fd5b565b60606000600167ffffffffffffffff81111561253e5761253d612dd5565b5b60405190808252806020026020018201604052801561256c5781602001602082028036833780820191505090505b509050828160008151811061258457612583613a0c565b5b60200260200101818152505080915050919050565b6125b88473ffffffffffffffffffffffffffffffffffffffff16612952565b15612778578373ffffffffffffffffffffffffffffffffffffffff1663f23a6e6187878686866040518663ffffffff1660e01b81526004016125fe95949392919061462d565b602060405180830381600087803b15801561261857600080fd5b505af192505050801561264957506040513d601f19601f82011682018060405250810190612646919061433f565b60015b6126ef57612655614379565b806308c379a014156126b2575061266a61439b565b8061267557506126b4565b806040517f08c379a00000000000000000000000000000000000000000000000000000000081526004016126a99190612fde565b60405180910390fd5b505b6040517f08c379a00000000000000000000000000000000000000000000000000000000081526004016126e6906144a3565b60405180910390fd5b63f23a6e6160e01b7bffffffffffffffffffffffffffffffffffffffffffffffffffffffff1916817bffffffffffffffffffffffffffffffffffffffffffffffffffffffff191614612776576040517f08c379a000000000000000000000000000000000000000000000000000000000815260040161276d90614535565b60405180910390fd5b505b505050505050565b61278e868686868686612975565b600073ffffffffffffffffffffffffffffffffffffffff168573ffffffffffffffffffffffffffffffffffffffff1614156128405760005b835181101561283e578281815181106127e2576127e1613a0c565b5b60200260200101516004600086848151811061280157612800613a0c565b5b6020026020010151815260200190815260200160002060008282546128269190613ab3565b925050819055508061283790613a6a565b90506127c6565b505b600073ffffffffffffffffffffffffffffffffffffffff168473ffffffffffffffffffffffffffffffffffffffff16141561294a5760005b835181101561294857600084828151811061289657612895613a0c565b5b6020026020010151905060008483815181106128b5576128b4613a0c565b5b602002602001015190506000600460008481526020019081526020016000205490508181101561291a576040517f08c379a0000000000000000000000000000000000000000000000000000000008152600401612911906146f9565b60405180910390fd5b81810360046000858152602001908152602001600020819055505050508061294190613a6a565b9050612878565b505b505050505050565b6000808273ffffffffffffffffffffffffffffffffffffffff163b119050919050565b505050505050565b828054612989906138b6565b90600052602060002090601f0160209004810192826129ab57600085556129f2565b82601f106129c457805160ff19168380011785556129f2565b828001600101855582156129f2579182015b828111156129f15782518255916020019190600101906129d6565b5b5090506129ff9190612a03565b5090565b5b80821115612a1c576000816000905550600101612a04565b5090565b600082825260208201905092915050565b7f7265636569766500000000000000000000000000000000000000000000000000600082015250565b6000612a67600783612a20565b9150612a7282612a31565b602082019050919050565b600073ffffffffffffffffffffffffffffffffffffffff82169050919050565b6000612aa882612a7d565b9050919050565b612ab881612a9d565b82525050565b6000819050919050565b612ad181612abe565b82525050565b600082825260208201905092915050565b50565b6000612af8600083612ad7565b9150612b0382612ae8565b600082019050919050565b60006080820190508181036000830152612b2781612a5a565b9050612b366020830185612aaf565b612b436040830184612ac8565b8181036060830152612b5481612aeb565b90509392505050565b7f66616c6c6261636b000000000000000000000000000000000000000000000000600082015250565b6000612b93600883612a20565b9150612b9e82612b5d565b602082019050919050565b82818337600083830152505050565b6000601f19601f8301169050919050565b6000612bd58385612ad7565b9350612be2838584612ba9565b612beb83612bb8565b840190509392505050565b60006080820190508181036000830152612c0f81612b86565b9050612c1e6020830187612aaf565b612c2b6040830186612ac8565b8181036060830152612c3e818486612bc9565b905095945050505050565b6000604051905090565b600080fd5b600080fd5b612c6681612a9d565b8114612c7157600080fd5b50565b600081359050612c8381612c5d565b92915050565b612c9281612abe565b8114612c9d57600080fd5b50565b600081359050612caf81612c89565b92915050565b60008060408385031215612ccc57612ccb612c53565b5b6000612cda85828601612c74565b9250506020612ceb85828601612ca0565b9150509250929050565b6000602082019050612d0a6000830184612ac8565b92915050565b60007fffffffff0000000000000000000000000000000000000000000000000000000082169050919050565b612d4581612d10565b8114612d5057600080fd5b50565b600081359050612d6281612d3c565b92915050565b600060208284031215612d7e57612d7d612c53565b5b6000612d8c84828501612d53565b91505092915050565b60008115159050919050565b612daa81612d95565b82525050565b6000602082019050612dc56000830184612da1565b92915050565b600080fd5b600080fd5b7f4e487b7100000000000000000000000000000000000000000000000000000000600052604160045260246000fd5b612e0d82612bb8565b810181811067ffffffffffffffff82111715612e2c57612e2b612dd5565b5b80604052505050565b6000612e3f612c49565b9050612e4b8282612e04565b919050565b600067ffffffffffffffff821115612e6b57612e6a612dd5565b5b612e7482612bb8565b9050602081019050919050565b6000612e94612e8f84612e50565b612e35565b905082815260208101848484011115612eb057612eaf612dd0565b5b612ebb848285612ba9565b509392505050565b600082601f830112612ed857612ed7612dcb565b5b8135612ee8848260208601612e81565b91505092915050565b600060208284031215612f0757612f06612c53565b5b600082013567ffffffffffffffff811115612f2557612f24612c58565b5b612f3184828501612ec3565b91505092915050565b600060208284031215612f5057612f4f612c53565b5b6000612f5e84828501612ca0565b91505092915050565b600081519050919050565b60005b83811015612f90578082015181840152602081019050612f75565b83811115612f9f576000848401525b50505050565b6000612fb082612f67565b612fba8185612a20565b9350612fca818560208601612f72565b612fd381612bb8565b840191505092915050565b60006020820190508181036000830152612ff88184612fa5565b905092915050565b600067ffffffffffffffff82111561301b5761301a612dd5565b5b602082029050602081019050919050565b600080fd5b600061304461303f84613000565b612e35565b905080838252602082019050602084028301858111156130675761306661302c565b5b835b81811015613090578061307c8882612ca0565b845260208401935050602081019050613069565b5050509392505050565b600082601f8301126130af576130ae612dcb565b5b81356130bf848260208601613031565b91505092915050565b600067ffffffffffffffff8211156130e3576130e2612dd5565b5b6130ec82612bb8565b9050602081019050919050565b600061310c613107846130c8565b612e35565b90508281526020810184848401111561312857613127612dd0565b5b613133848285612ba9565b509392505050565b600082601f8301126131505761314f612dcb565b5b81356131608482602086016130f9565b91505092915050565b6000806000806080858703121561318357613182612c53565b5b600061319187828801612c74565b945050602085013567ffffffffffffffff8111156131b2576131b1612c58565b5b6131be8782880161309a565b935050604085013567ffffffffffffffff8111156131df576131de612c58565b5b6131eb8782880161309a565b925050606085013567ffffffffffffffff81111561320c5761320b612c58565b5b6132188782880161313b565b91505092959194509250565b600080600080600060a086880312156132405761323f612c53565b5b600061324e88828901612c74565b955050602061325f88828901612c74565b945050604086013567ffffffffffffffff8111156132805761327f612c58565b5b61328c8882890161309a565b935050606086013567ffffffffffffffff8111156132ad576132ac612c58565b5b6132b98882890161309a565b925050608086013567ffffffffffffffff8111156132da576132d9612c58565b5b6132e68882890161313b565b9150509295509295909350565b600067ffffffffffffffff82111561330e5761330d612dd5565b5b602082029050602081019050919050565b600061333261332d846132f3565b612e35565b905080838252602082019050602084028301858111156133555761335461302c565b5b835b8181101561337e578061336a8882612c74565b845260208401935050602081019050613357565b5050509392505050565b600082601f83011261339d5761339c612dcb565b5b81356133ad84826020860161331f565b91505092915050565b600080604083850312156133cd576133cc612c53565b5b600083013567ffffffffffffffff8111156133eb576133ea612c58565b5b6133f785828601613388565b925050602083013567ffffffffffffffff81111561341857613417612c58565b5b6134248582860161309a565b9150509250929050565b600081519050919050565b600082825260208201905092915050565b6000819050602082019050919050565b61346381612abe565b82525050565b6000613475838361345a565b60208301905092915050565b6000602082019050919050565b60006134998261342e565b6134a38185613439565b93506134ae8361344a565b8060005b838110156134df5781516134c68882613469565b97506134d183613481565b9250506001810190506134b2565b5085935050505092915050565b60006020820190508181036000830152613506818461348e565b905092915050565b60008060006060848603121561352757613526612c53565b5b600061353586828701612c74565b935050602084013567ffffffffffffffff81111561355657613555612c58565b5b6135628682870161309a565b925050604084013567ffffffffffffffff81111561358357613582612c58565b5b61358f8682870161309a565b9150509250925092565b60006020820190506135ae6000830184612aaf565b92915050565b6135bd81612d95565b81146135c857600080fd5b50565b6000813590506135da816135b4565b92915050565b600080604083850312156135f7576135f6612c53565b5b600061360585828601612c74565b9250506020613616858286016135cb565b9150509250929050565b600061362b82612a7d565b9050919050565b61363b81613620565b811461364657600080fd5b50565b60008135905061365881613632565b92915050565b6000806040838503121561367557613674612c53565b5b600061368385828601613649565b925050602061369485828601612ca0565b9150509250929050565b600080604083850312156136b5576136b4612c53565b5b60006136c385828601612c74565b92505060206136d485828601612c74565b9150509250929050565b600080600080600060a086880312156136fa576136f9612c53565b5b600061370888828901612c74565b955050602061371988828901612c74565b945050604061372a88828901612ca0565b935050606061373b88828901612ca0565b925050608086013567ffffffffffffffff81111561375c5761375b612c58565b5b6137688882890161313b565b9150509295509295909350565b60006020828403121561378b5761378a612c53565b5b600061379984828501612c74565b91505092915050565b6000806000606084860312156137bb576137ba612c53565b5b60006137c986828701612c74565b93505060206137da86828701612ca0565b92505060406137eb86828701612ca0565b9150509250925092565b7f455243313135353a2061646472657373207a65726f206973206e6f742061207660008201527f616c6964206f776e657200000000000000000000000000000000000000000000602082015250565b6000613851602a83612a20565b915061385c826137f5565b604082019050919050565b6000602082019050818103600083015261388081613844565b9050919050565b7f4e487b7100000000000000000000000000000000000000000000000000000000600052602260045260246000fd5b600060028204905060018216806138ce57607f821691505b602082108114156138e2576138e1613887565b5b50919050565b7f455243313135353a2063616c6c6572206973206e6f7420746f6b656e206f776e60008201527f6572206f7220617070726f766564000000000000000000000000000000000000602082015250565b6000613944602e83612a20565b915061394f826138e8565b604082019050919050565b6000602082019050818103600083015261397381613937565b9050919050565b7f455243313135353a206163636f756e747320616e6420696473206c656e67746860008201527f206d69736d617463680000000000000000000000000000000000000000000000602082015250565b60006139d6602983612a20565b91506139e18261397a565b604082019050919050565b60006020820190508181036000830152613a05816139c9565b9050919050565b7f4e487b7100000000000000000000000000000000000000000000000000000000600052603260045260246000fd5b7f4e487b7100000000000000000000000000000000000000000000000000000000600052601160045260246000fd5b6000613a7582612abe565b91507fffffffffffffffffffffffffffffffffffffffffffffffffffffffffffffffff821415613aa857613aa7613a3b565b5b600182019050919050565b6000613abe82612abe565b9150613ac983612abe565b9250827fffffffffffffffffffffffffffffffffffffffffffffffffffffffffffffffff03821115613afe57613afd613a3b565b5b828201905092915050565b7f6d617820737570706c7920726561636865640000000000000000000000000000600082015250565b6000613b3f601283612a20565b9150613b4a82613b09565b602082019050919050565b60006020820190508181036000830152613b6e81613b32565b9050919050565b7f7769746864726177616c206578636565647320636f6e74726163742062616c6160008201527f6e63650000000000000000000000000000000000000000000000000000000000602082015250565b6000613bd1602383612a20565b9150613bdc82613b75565b604082019050919050565b60006020820190508181036000830152613c0081613bc4565b9050919050565b600081905092915050565b6000613c1f600083613c07565b9150613c2a82612ae8565b600082019050919050565b6000613c4082613c12565b9150819050919050565b7f4661696c656420746f2073656e64204574686572000000000000000000000000600082015250565b6000613c80601483612a20565b9150613c8b82613c4a565b602082019050919050565b60006020820190508181036000830152613caf81613c73565b9050919050565b7f4f776e61626c653a206e6577206f776e657220697320746865207a65726f206160008201527f6464726573730000000000000000000000000000000000000000000000000000602082015250565b6000613d12602683612a20565b9150613d1d82613cb6565b604082019050919050565b60006020820190508181036000830152613d4181613d05565b9050919050565b7f4f776e61626c653a2063616c6c6572206973206e6f7420746865206f776e6572600082015250565b6000613d7e602083612a20565b9150613d8982613d48565b602082019050919050565b60006020820190508181036000830152613dad81613d71565b9050919050565b7f455243313135353a206d696e7420746f20746865207a65726f2061646472657360008201527f7300000000000000000000000000000000000000000000000000000000000000602082015250565b6000613e10602183612a20565b9150613e1b82613db4565b604082019050919050565b60006020820190508181036000830152613e3f81613e03565b9050919050565b7f455243313135353a2069647320616e6420616d6f756e7473206c656e6774682060008201527f6d69736d61746368000000000000000000000000000000000000000000000000602082015250565b6000613ea2602883612a20565b9150613ead82613e46565b604082019050919050565b60006020820190508181036000830152613ed181613e95565b9050919050565b60006040820190508181036000830152613ef2818561348e565b90508181036020830152613f06818461348e565b90509392505050565b7f455243313135353a207472616e7366657220746f20746865207a65726f20616460008201527f6472657373000000000000000000000000000000000000000000000000000000602082015250565b6000613f6b602583612a20565b9150613f7682613f0f565b604082019050919050565b60006020820190508181036000830152613f9a81613f5e565b9050919050565b7f455243313135353a20696e73756666696369656e742062616c616e636520666f60008201527f72207472616e7366657200000000000000000000000000000000000000000000602082015250565b6000613ffd602a83612a20565b915061400882613fa1565b604082019050919050565b6000602082019050818103600083015261402c81613ff0565b9050919050565b7f455243313135353a206275726e2066726f6d20746865207a65726f206164647260008201527f6573730000000000000000000000000000000000000000000000000000000000602082015250565b600061408f602383612a20565b915061409a82614033565b604082019050919050565b600060208201905081810360008301526140be81614082565b9050919050565b7f455243313135353a206275726e20616d6f756e7420657863656564732062616c60008201527f616e636500000000000000000000000000000000000000000000000000000000602082015250565b6000614121602483612a20565b915061412c826140c5565b604082019050919050565b6000602082019050818103600083015261415081614114565b9050919050565b600060408201905061416c6000830185612ac8565b6141796020830184612ac8565b9392505050565b7f455243313135353a2073657474696e6720617070726f76616c2073746174757360008201527f20666f722073656c660000000000000000000000000000000000000000000000602082015250565b60006141dc602983612a20565b91506141e782614180565b604082019050919050565b6000602082019050818103600083015261420b816141cf565b9050919050565b7f5265656e7472616e637947756172643a207265656e7472616e742063616c6c00600082015250565b6000614248601f83612a20565b915061425382614212565b602082019050919050565b600060208201905081810360008301526142778161423b565b9050919050565b600081519050919050565b60006142948261427e565b61429e8185612ad7565b93506142ae818560208601612f72565b6142b781612bb8565b840191505092915050565b600060a0820190506142d76000830188612aaf565b6142e46020830187612aaf565b81810360408301526142f6818661348e565b9050818103606083015261430a818561348e565b9050818103608083015261431e8184614289565b90509695505050505050565b60008151905061433981612d3c565b92915050565b60006020828403121561435557614354612c53565b5b60006143638482850161432a565b91505092915050565b60008160e01c9050919050565b600060033d11156143985760046000803e61439560005161436c565b90505b90565b600060443d10156143ab5761442e565b6143b3612c49565b60043d036004823e80513d602482011167ffffffffffffffff821117156143db57505061442e565b808201805167ffffffffffffffff8111156143f9575050505061442e565b80602083010160043d03850181111561441657505050505061442e565b61442582602001850186612e04565b82955050505050505b90565b7f455243313135353a207472616e7366657220746f206e6f6e2d4552433131353560008201527f526563656976657220696d706c656d656e746572000000000000000000000000602082015250565b600061448d603483612a20565b915061449882614431565b604082019050919050565b600060208201905081810360008301526144bc81614480565b9050919050565b7f455243313135353a204552433131353552656365697665722072656a6563746560008201527f6420746f6b656e73000000000000000000000000000000000000000000000000602082015250565b600061451f602883612a20565b915061452a826144c3565b604082019050919050565b6000602082019050818103600083015261454e81614512565b9050919050565b7f5061757361626c653a206e6f7420706175736564000000000000000000000000600082015250565b600061458b601483612a20565b915061459682614555565b602082019050919050565b600060208201905081810360008301526145ba8161457e565b9050919050565b7f5061757361626c653a2070617573656400000000000000000000000000000000600082015250565b60006145f7601083612a20565b9150614602826145c1565b602082019050919050565b60006020820190508181036000830152614626816145ea565b9050919050565b600060a0820190506146426000830188612aaf565b61464f6020830187612aaf565b61465c6040830186612ac8565b6146696060830185612ac8565b818103608083015261467b8184614289565b90509695505050505050565b7f455243313135353a206275726e20616d6f756e74206578636565647320746f7460008201527f616c537570706c79000000000000000000000000000000000000000000000000602082015250565b60006146e3602883612a20565b91506146ee82614687565b604082019050919050565b60006020820190508181036000830152614712816146d6565b905091905056fea26469706673582212204753c481875312e5deb5ab19334a5e3c68d2ec38c62498e07e5f50357f9ec2e564736f6c63430008090033697066733a2f2f516d62464a68586f575145476876366e75664163393352355435374739526a33667366384152664c5a51756d416e2f6d657461646174612e6a736f6e",
  "linkReferences": {},
  "deployedLinkReferences": {}
}